:100000000C944C000C9469000C9469000C946900E9
:100010000C9469000C94AF000C9469000C94690076
:100020000C9469000C9469000C9469000C946900AC
:100030000C9469000C9469000C9469000C9469009C
:100040000C9469000C9469000C9469000C9469008C
:100050000C9469000C9469000C9469000C9469007C
:100060000C9469000C9469006F0377037F03870386
:100070008F0397039F03A703BD03C503CD03D503D8
:10008000DD03E503ED03F503C005C505CA05CF058E
:10009000D405D905DE05E30511241FBECFEFD8E056
:1000A000DEBFCDBF12E0A0E0B1E0E4E3FFE002C0BC
:1000B00005900D92A03CB107D9F722E0A0ECB2E088
:1000C00001C01D92A63DB207E1F70E9419070C94EA
:1000D00098070C94000080E387B981E08093B90011
:1000E00082E18093B80084E08093BC00089584EAA4
:1000F0008093BC008091BC008823E4F7089584E9D4
:100100008093BC0008958093BB0084E88093BC007A
:100110008091BC008823E4F7089520E4829FC00109
:10012000112484688093BC008091BC008823E4F78C
:100130008091BB00089587E690E09093C50080937E
:10014000C40088E08093C10086E08093C2000895D7
:100150008093C6008091C00085FFFCCF08951F9258
:100160000F920FB60F9211242F933F934F938F93BB
:100170009F93EF93FF93809100018F3009F068C047
:1001800058C085B18F6085B945B181E090E0022EFD
:1001900002C0880F991F0A94E2F78095842385B9DD
:1001A00089B1807F90E0803791050CF43FC089B120
:1001B00082958F708E3059F4F901EE0FFF1FEE0F0C
:1001C000FF1FE155FD4F8081809313012FC089B13E
:1001D00082958F708D3059F4F901EE0FFF1FEE0FED
:1001E000FF1FE155FD4F8181809313011FC089B12D
:1001F00082958F708B3059F4F901EE0FFF1FEE0FCF
:10020000FF1FE155FD4F8281809313010FC089B11B
:1002100082958F70873051F4F901EE0FFF1FEE0FBA
:10022000FF1FE155FD4F8381809313012F5F3F4FE7
:1002300002C020E030E0243031050CF4A2CF85B1BB
:10024000807F85B981E090E09093C1028093C002E5
:10025000909100018FE0892780930001FF91EF9139
:100260009F918F914F913F912F910F900FBE0F90C3
:100270001F901895AC0182E084BD83E085BD8CE0C1
:1002800087BD85B38D6F85BB20E030E007C0A99B9B
:10029000FECF2F5F3F4F95B39D6F95BB241735075A
:1002A000B1F70895CF93C82F82958F7080648093A3
:1002B000CE020E94830081E090E00E943A0180918A
:1002C000CE028F7B8093CE020E94830085E090E077
:1002D0000E943A018C2F8F7080648093CE020E941E
:1002E000830081E090E00E943A018091CE028F7BF2
:1002F0008093CE020E94830085E090E00E943A0144
:10030000CF91089582E390E00E943A0182E40E9436
:10031000830082E090E00E943A0182E00E94830024
:1003200081E090E00E943A0188E20E9452018CE054
:100330000E945201089581E00E94520182E090E003
:100340000E943A0180E80E9452010895CF93C82F7D
:1003500082958F70806C8093CE020E94830081E032
:1003600090E00E943A018091CE028F7B8093CE0272
:100370000E94830085E090E00E943A018C2F8F70EC
:10038000806C8093CE020E94830081E090E00E9406
:100390003A018091CE028F7B8093CE020E9483002F
:1003A00085E090E00E943A01CF9108950F931F934A
:1003B000CF93DF938C01C0E0D0E003C00E94A60180
:1003C0002196F801EC0FFD1F80818111F7CFDF919D
:1003D000CF911F910F9108950E94770080E40E94B1
:1003E00083000E949B0180E80E94520184E191E019
:1003F0000E94D60180EC0E94520181E291E00E94AD
:10040000D6010E947F0084E690E00E943A010895A0
:100410000E94770080E40E9483000E949B0180E894
:100420000E94520182E391E00E94D60180EC0E947A
:1004300052018EE391E00E94D6010E947F0084E683
:1004400090E00E943A0108950E94770080E40E94A3
:1004500083000E949B0180E80E9452018AE491E09F
:100460000E94D60180EC0E94520186E591E00E9434
:10047000D60108950E949B0180E80E94520183E604
:1004800091E00E94D60180EC0E94520186E591E045
:100490000E94D6018DE80E9452010895CF93DF9308
:1004A0008091CC029091CD029093D5028093D4029A
:1004B0000E94240287E80E945201C0E0D0E005C0FB
:1004C00086EC91E00E94D6012196C430D105C4F398
:1004D0000E947F0084E690E00E943A0181E090E073
:1004E000DF91CF910895CF93DF938091CC029091CB
:1004F000CD029093D5028093D4020E94770080E4CD
:100500000E9483000E949B0180E80E94520188ECB7
:1005100091E00E94D6018BE80E945201C0E0D0E039
:1005200009C086EC91E00E94D60180E197E20E942A
:100530003A012196C430D105A4F30E947F0084E6DD
:1005400090E00E943A0188E090E0DF91CF91089519
:100550000E944E02C09749F48091D4029091D50236
:100560009093CD028093CC0208950E94EC010AC0C2
:1005700080911301813431F481E090E09093CD02B9
:100580008093CC028091CC029091CD02892B81F393
:1005900008950E944E02C09749F48091D402909130
:1005A000D5029093CD028093CC02089580E197E22A
:1005B0000E943A010E94080208C08091130184340D
:1005C00021F41092CD021092CC028091CC02909135
:1005D000CD02019791F308958CE292E00E94D6013A
:1005E00080E197E20E943A010E949B0180E80E940C
:1005F00052018EE292E00E94D60180EC0E945201EC
:1006000081E692E00E94D60180911301803341F48B
:1006100080EC0E9452018FE392E00E94D60125C037
:10062000813361F480EC0E94520181E492E00E94E7
:10063000D60180E197E20E943A0117C0823361F44B
:1006400080E197E20E943A0180EC0E9452018CE224
:1006500092E00E94D60109C0833339F480EC0E94F5
:10066000520183E492E00E94D60180E197E20E9469
:100670003A010E949B0180E80E94520185E492E0C9
:100680000E94D60180EC0E94520186E591E00E9412
:10069000D6018CE80E9452011092CD021092CC0239
:1006A0000895CF93DF93EC0183E492E00E94D6019A
:1006B00080E197E20E943A010E943A02219709F0F4
:1006C0004EC080911301482F50E0FA01F097E830B6
:1006D000F10508F091C0EC5CFF4F0C9492070E946A
:1006E000A6018091CF0281608093CF0285C00E94D5
:1006F000A6018091CF0282608093CF027DC00E94CC
:10070000A6018091CF0284608093CF0275C00E94C1
:10071000A6018091CF0288608093CF026DC00E94B5
:10072000A6018091CF0280618093CF0265C00E94B4
:10073000A6018091CF0280628093CF025DC00E94AB
:10074000A6018091CF0280648093CF0255C00E94A1
:10075000A6018091CF0280688093CF024DC0809126
:100760001301482F50E0FA01F097E830F10508F046
:1007700043C0E45CFF4F0C9492070E94A601809155
:10078000CF028E7F8093CF0237C00E94A601809156
:10079000CF028D7F8093CF022FC00E94A60180914F
:1007A000CF028B7F8093CF0227C00E94A601809149
:1007B000CF02877F8093CF021FC00E94A601809145
:1007C000CF028F7E8093CF0217C00E94A601809136
:1007D000CF028F7D8093CF020FC00E94A60180912F
:1007E000CF028F7B8093CF0207C00E94A601809129
:1007F000CF028F778093CF021092CD021092CC025D
:10080000DF91CF910895CF93DF93EC0180E197E2E0
:100810000E943A010E949B0180E80E94520186E5F5
:1008200092E00E94D60180EC0E94520186E591E0A0
:100830000E94D6018AE80E945201809113018233FE
:1008400059F0833381F08133A1F40E94A601D09343
:10085000C302C093C2020DC00E94A601D093C5027C
:10086000C093C40206C00E94A601D093C702C093E1
:10087000C6021092CD021092CC02DF91CF91089562
:10088000EF92FF920F931F93CF93DF9380E197E254
:100890000E943A010E949B0180E80E94520183E677
:1008A00092E00E94D60180EC0E94520186E591E020
:1008B0000E94D6018DE80E945201C0E0D0E034C011
:1008C000809113018D3281F10E94A601209751F48D
:1008D0008091130190E0C09724E6289F7001299F22
:1008E000F00C1124C130D10579F48091130190E00E
:1008F000C0978C01000F111F880F991F880F991F37
:10090000880F991F080F191FC230D10561F480911B
:10091000130190E0C097800F911F8E0D9F1D909343
:10092000CB028093CA022196C330D1054CF2DF91ED
:10093000CF911F910F91FF90EF9008950F931F9308
:10094000CF93DF9380E197E20E943A010E949B01DE
:1009500080E80E94520184E792E00E94D60180EC78
:100960000E94520186E591E00E94D6018EE80E9425
:100970005201C0E0D0E026C0809113018D3211F108
:100980000E94A601C130D10579F48091130190E055
:10099000C0978C01000F111F880F991F880F991F96
:1009A000880F991F080F191FC230D10551F480918B
:1009B000130190E0C097800F911F909312018093D4
:1009C00011012196C230D105BCF2DF91CF911F9168
:1009D0000F910895EF92FF920F931F93CF93DF93A0
:1009E00080E197E20E943A010E949B0180E80E9408
:1009F000520185E892E00E94D60180EC0E945201EB
:100A000086E591E00E94D6018DE80E945201C0E087
:100A1000D0E034C0809113018D3281F10E94A60193
:100A2000209751F48091130190E0C09724E6289F0D
:100A30007001299FF00C1124C130D10579F4809107
:100A4000130190E0C0978C01000F111F880F991FB0
:100A5000880F991F880F991F080F191FC230D105E1
:100A600061F48091130190E0C097800F911F8E0D6B
:100A70009F1D9093C9028093C8022196C330D1056F
:100A80004CF2DF91CF911F910F91FF90EF9008955D
:100A9000CF93DF93EC01809113010E94A601209176
:100AA000130191E04091C0025091C10241305105C3
:100AB00009F090E081E0213309F080E0892349F0DA
:100AC000CC0FDD1FCF5FDE4F81E090E099838883FC
:100AD0001DC081E0223309F080E0892349F0CC0F6A
:100AE000DD1FCF5FDE4F82E090E0998388830EC0E8
:100AF00081E0233309F080E0982341F0CC0FDD1F23
:100B0000CF5FDE4F83E090E099838883DF91CF91C0
:100B10000895019709F05CC00E949B0180E80E9443
:100B2000520183E691E00E94D6018DE80E945201B5
:100B3000809113010E94A60180E197E20E943A0190
:100B40000E949B0180E80E94520186E592E00E948B
:100B5000D60180EC0E94520186E591E00E94D60108
:100B60008BE80E945201E09113018E2F90E0FC016E
:100B7000F097E830F105F0F5EC5BFF4F0C9492072D
:100B800080E090E00E944805089581E090E00E9496
:100B90004805089582E090E00E944805089583E0AA
:100BA00090E00E944805089584E090E00E94480586
:100BB000089585E090E00E944805089586E090E061
:100BC0000E944805089587E090E00E944805089536
:100BD0000E943A02809113010E94A601E091130144
:100BE000F0E0F097EE0FFF1FEF5FFE4F83E090E025
:100BF000918380830895EF92FF920F931F93CF9379
:100C0000DF930E947302C09749F48091D4029091BF
:100C1000D5029093CD028093CC0204C180E197E28B
:100C20000E943A010E94770080E40E9483000E94A3
:100C30009B0180E80E94520186E992E00E94D60161
:100C400080EC0E94520181EA92E00E94D60189E87C
:100C50000E94520180E197E20E943A01E12CF12CBE
:100C600000E010E027C02091130181E04091C00214
:100C70005091C1024130510509F080E091E02134EA
:100C800009F090E0982351F08BEA92E00E94D6019F
:100C90000F5F1F4FEE24E394F12C0CC091E024343D
:100CA00009F090E0892331F08DEA92E00E94D601AC
:100CB0000F5F1F4F01151105B1F280E197E20E940D
:100CC0003A0188EC0E945201C0E0D0E0A1C08091BE
:100CD000130191E02091C0023091C1022130310511
:100CE00009F090E021E0823309F020E0292391F01F
:100CF0000E94EC0209C086EC91E00E94D60180E1DE
:100D000097E20E943A012196C430D105A4F30F5F07
:100D10001F4F7EC021E0833309F020E02923B1F189
:100D20000E947F0084E690E00E943A010E947700D2
:100D300083E40E94830081E00E948D008093CF02B3
:100D40000E947F0084E690E00E943A010E947700B2
:100D500080E40E948300C7010E9451030E947F002B
:100D600084E690E00E943A010E94770082E40E94AB
:100D700083008091CF020E9483000E947F0084E65E
:100D800090E00E943A010F5F1F4F42C021E0843380
:100D900009F020E0292341F00E94A601C7010E942A
:100DA00089050F5F1F4F34C021E0853309F020E033
:100DB000292341F00E94A601C7010E9403040F5F8E
:100DC0001F4F26C021E0863309F020E0292339F0A7
:100DD0000E94A6010E9440040F5F1F4F19C021E02E
:100DE000873309F020E0292339F00E94A6010E94F0
:100DF0009E040F5F1F4F0CC021E0883309F020E0F4
:100E0000922331F00E94A6010E94EA040F5F1F4F57
:100E10000130110509F45BCF0E947F0084E690E069
:100E20000E943A01DF91CF911F910F91FF90EF90B7
:100E300008950E946B000E949B0084B18F6084B96A
:100E40008AB18F708AB91092CD021092CC020E94A2
:100E5000770080E40E94830082E390E00E943A01E0
:100E60000E9482010E94EC010E947F0080E197E2D3
:100E70000E943A01809113010E94A8002091130161
:100E800091E04091C0025091C1024130510509F0FA
:100E900090E081E0203509F080E0892339F4409129
:100EA000CC025091CD024230510549F482E090E0ED
:100EB0009093CD028093CC020E94FB05DBCF81E0B2
:100EC000213409F080E0892319F44130510549F4B7
:100ED00081E090E09093CD028093CC020E94C90201
:100EE000C9CF81E0243409F080E0892319F4411549
:100EF000510539F41092CD021092CC020E94A80242
:100F0000B9CF81E0233509F080E0982321F4433004
:100F1000510509F0AFCF83E090E09093CD0280932C
:100F2000CC02A8CFEE0FFF1F0590F491E02D09949D
:040F3000F894FFCF63
:100F34000F03000300030003000300030003000386
:100F44000063002D20202020454C452D31373137BA
:100F54000043656E7472616C202D20416C61726D6A
:100F640065002020202043656E7472616C0020208F
:100F74002020417469766164610053656E68613A4A
:100F8400202D2D2D2D0045202D20436F6E66697276
:100F94006D610053656E736F7228302D37293A20C6
:100FA4002D00202020202053656E68610020202021
:100FB400496E636F72726574610052656769737418
:100FC400726F206465206576656E746F200D0A006B
:100FD400557365723A2000446174613A2000486F89
:100FE40072613A20004F70657261E7E36F3A200046
:100FF4000D0A200D0A002A0053656E686120284DF1
:10100400293A202D2D2D2D000D200A0053656E68E0
:1010140061203120636F72726574610053656E687C
:1010240061203220636F72726574610053656E686B
:1010340061203320636F72726574610053656E685A
:1010440061203420636F72726574610053656E6849
:101054006120696E636F727265746100320051754C
:10106400616C2073656E686128302D33293F003030
:1010740000310033004E6F76612073656E68613A0B
:10108400202D2D2D2D005A6F6E6128312D33293AD4
:10109400202D0054656D702E20417469766F3A20BE
:1010A4002D2D2D0054656D702E2054696D656F755E
:1010B400743A2D2D0054656D702E20536972656E3F
:1010C400653A2D2D2D004F5028412F44293A202DCB
:1010D400004628322D38293A202D004100440031A1
:1010E4003233503435364137383944523053450061
:00000001FF
